S02B0000433A2F55736572732F566976656B2F4465736B746F702F4175746F2D6C65676F2D617373656D626C29
S1130000340004021418004274FD4102D4FF554A1E
S113001035014042F4FFFF03D4FFFE7B3500C043AB
S11300203A882F003A882B0014123A0154004001F8
S1130030F4FFFF01D4FFFE39370080443A70E491A5
S11300403500804437008042FAD214504C0080526C
S11300501EF93F503700C042FAD61658CC03C05A96
S1130060C4024002840000054400C0040E74405AD7
S1130070440040AD169F00AD3A882B000401C00532
S1130080F4FFFF03D4FFFF7B3500C043C4FFFFBD73
S1130090003B0000003B00001EFC3FB80405C00507
S11300A006B50000C4FFFFBD003B0000003B00009C
S11300B01EFB3FB80401C005F4FFFF03D4FFFF7B20
S11300C03500C043C4FFFFBD003B0000003B0000FF
S11300D01EFC3FB84409C0054400C0040667000084
S11300E0C4FFFFBD003B0000003B00001EFA3FB808
S11300F00401C005F4FFFF03D4FFFF7B3500C043B8
S1130100C4FFFFBD003B0000003B00001EFC3FB8E5
S11301100405C0058400C00406760000C4FFFFBDCA
S1130120003B0000003B00001EFA3FB80401C0057C
S1130130F4FFFF03D4FFFF7B3500C043C4FFFFBDC2
S1130140003B0000003B00001EFC3FB8440BC00510
S11301504400C004063C0000C4FFFFBD003B000097
S1130160003B00001EFA3FB80401C005F4FFFF0382
S1130170D4FFFF7B3500C043C4FFFFBD003B00003C
S1130180003B00001EFC3FB8C408C005C400C00406
S113019006580000C4FFFFBD003B0000003B000008
S11301A01EFA3FB80401C005F4FFFF03D4FFFF7B30
S11301B03500C043C4FFFFBD003B0000003B00000E
S11301C01EFC3FB8840EC0058400C004061E000057
S11301D0C4FFFFBD003B0000003B00001EFA3FB817
S11301E00401C005F4FFFF03D4FFFF7B3500C043C7
S11301F0C4FFFFBD003B0000003B00001EFC3FB8F5
S1130200440BC0058400C004061C0000C4FFFFBDED
S1130210003B0000003B00001EFA3FB80401C0058B
S1130220F4FFFF03D4FFFF7B3500C043C4FFFFBDD1
S1130230003B0000003B00001EFC3FB806580000D5
S11302403A882B00062B0000F4FFBF03D4FFBF73D2
S113025035008043003B0000F4FFBF0314FEBF736E
S113026035008043003B00004400400426BA7F9CD4
S11302708400400426D67F9C066F3F00F4FFBF0332
S1130280D4FFBF7335008043003B0000F4FFBF037D
S113029094FCBF7335008043003B000044004004DD
S11302A0268F7F9C8400400426D87F9CF4FFBF03E4
S11302B0D4FFBF7335008043003B0000F4FFBF034D
S11302C094FFBF7335008043003B0000065A3F0093
S11302D0F4FFBF03D4FFBF7335008043003B00002D
S11302E0F4FFBF03D4FEBF7335008043003B00001E
S11302F006513F00F4FFBF03D4FFBF7335008043B2
S1130300003B0000003B0000F4FFBF0394FEBF73FA
S113031035008043003B00004400400426467F9C97
S113032084004004267D7F9CC400400426997F9C61
S1130330F4FFBF03D4FFBF7335008043003B0000CC
S1130340F4FFBF0314FFBF7335008043003B00007C
S113035006393F00F4FFBF03D4FFBF733500804369
S1130360003B0000F4FFBF03D4FCBF73350080439F
S1130370003B000006303F00F4FFBF03D4FFBF730F
S113038035008043003B0000003B0000F4FFBF0346
S113039014FCBF7335008043003B000006413F005E
S11303A0F4FFFF03D4FFFE7B3500C04306FC3F008F
S11303B034008401140088313A88052035028030E5
S11303C03A880528350380301401800035018030D7
S11303D0350400303704C030370540333A941A6886
S11303E03AB0DA68370000347AD020804C000084B8
S10B03F01EF73F803A2800F8D3
S9030000FC
