S02B0000433A2F55736572732F566976656B2F4465736B746F702F4175746F2D6C65676F2D617373656D626C29
S11300003420C00604FFFFDE34000402041800425A
S113001074FD4102C4FF554A350140423400C00317
S1130020C4FFFE7B3500C0433A882F003A882B007A
S113003014123A01540040013400C001C4FFFE39D7
S1130040370080443A70E4913500804437008042A0
S1130050FAD214504C0080521EF93F503700C0426F
S1130060FAD61658CC03C05A840240028400000514
S11300704400C0040E82405A440040AD16B500ADA1
S11300803A882B000401C0053400C003C4FFFF7B81
S11300903500C043C4FFFFBDC0450000C04500009B
S11300A01EFC3FB80405C00506D20000C4FFFFBD16
S11300B0C0450000C04500001EFB3FB8C02400003E
S11300C08407C0054400C00406800000C4FFFFBDCF
S11300D0C0450000C04500001EFA3FB80401C00539
S11300E03400C003C4FFFF7B3500C043C4FFFFBD21
S11300F0C0450000C04500001EFC3FB80405C00513
S11301008400C00406930000C4FFFFBDC045000086
S1130110C04500001EFA3FB80401C0053400C00306
S1130120C4FFFF7B3500C043C4FFFFBDC0450000D2
S1130130C04500001EFC3FB8840AC0054400C0044A
S113014006510000C4FFFFBDC0450000C0450000CB
S11301501EFA3FB80401C0053400C003C4FFFF7B8E
S11301603500C043C4FFFFBDC0450000C0450000CA
S11301701EFC3FB8040AC005C400C0040675000094
S1130180C4FFFFBDC0450000C04500001EFA3FB8D3
S11301900402C0053400C003C4FFFF7B3500C04324
S11301A0C4FFFFBDC0450000C04500001EFC3FB8B1
S11301B0840CC0058400C00406330000C4FFFFBDE6
S11301C0C0450000C04500001EFA3FB80401C00548
S11301D03400C003C4FFFF7B3500C043C4FFFFBD30
S11301E0C0450000C04500001EFC3FB8C403C00564
S11301F00401C00406570000C4FFFFBDC045000051
S1130200C04500001EFA3FB8840AC0058400C0043B
S1130210062E0000C4FFFFBDC0450000C04500001D
S11302201EFA3FB80401C0053400C003C4FFFF7BBD
S11302303500C043C4FFFFBDC0450000C0450000F9
S11302401EFC3FB8C02400000678000004FFFFDE57
S11302501500C0DF0401C0053400C003C4FFFF7BE8
S11302603500C043C4FFFFBDC0450000C0450000C9
S11302701EFC3FB81700C0DF0401C0DE3A2800F8B6
S11302803A882B00063300003400C003C4FFBF7358
S113029035008043C04500003400C00304FEBF7332
S11302A03500804334008405040480B504C2BF03D0
S11302B0350080B3C04500004400400426A17F9C63
S11302C08400400426BD7F9C065D3F003400C003CB
S11302D0C4FFBF7335008043C04500003400C00331
S11302E084FCBF733500804334008405040480B566
S11302F044C0BF03350080B3C0450000440040043F
S113030026727F9C8400400426C27F9C3400C00374
S1130310C4FFBF7335008043C04500003400C003F0
S113032084FFBF7335008043C045000006443F008E
S11303303400C003C4FFBF7335008043C0450000D0
S11303403400C003C4FEBF7335008043C0450000C1
S1130350063B3F003400C003C4FFBF733500804335
S1130360C0450000C04500003400C00384FEBF73D4
S11303703500804334008405040480B584C0BF0381
S1130380350080B3C045000044004004262C7F9C07
S113039084004004265C7F9CC400400426787F9C33
S11303A00401400426947F9C06253F003400C003CA
S11303B0C4FFBF7335008043C04500003400C00350
S11303C004FFBF7335008043C0450000061C3F0096
S11303D03400C003C4FFBF7335008043C045000030
S11303E03400C003C4FCBF7335008043C045000023
S11303F006133F003400C003C4FFBF7335008043BD
S113040034008405040480B504C1BF03350080B3FF
S1130410C0450000C04500003400C00304FCBF73A5
S113042035008043C045000006203F003400C0036F
S1130430C4FFFE7B3500C04334008405040480B54A
S113044004C0BF03350080B334008405040080B5C4
S1130450C4FFBF03350080B306F43F0034008401B9
S1130460040088313A880520350280303A8805280E
S113047035038030140180003501803035040030AC
S11304803704C030370540333A941A683AB0DA6812
S1130490370000347AD020804C0000841EF73F805F
S10704A03A2800F8FA
S9030000FC
